{
  "_format": "hh-sol-artifact-1",
  "contractName": "ElectionFactory",
  "sourceName": "contracts/ElectionFactory.sol",
  "abi": [
    {
      "anonymous": false,
      "inputs": [
        {
          "indexed": true,
          "internalType": "address",
          "name": "admin",
          "type": "address"
        },
        {
          "indexed": true,
          "internalType": "address",
          "name": "ElectionAddress",
          "type": "address"
        },
        {
          "indexed": false,
          "internalType": "string",
          "name": "name",
          "type": "string"
        }
      ],
      "name": "ElectionCreated",
      "type": "event"
    },
    {
      "inputs": [
        {
          "internalType": "address",
          "name": "",
          "type": "address"
        }
      ],
      "name": "adminToElection",
      "outputs": [
        {
          "internalType": "address",
          "name": "",
          "type": "address"
        }
      ],
      "stateMutability": "view",
      "type": "function"
    },
    {
      "inputs": [
        {
          "internalType": "string",
          "name": "name",
          "type": "string"
        },
        {
          "internalType": "string[]",
          "name": "voters",
          "type": "string[]"
        },
        {
          "internalType": "string[]",
          "name": "candidates",
          "type": "string[]"
        }
      ],
      "name": "createElection",
      "outputs": [],
      "stateMutability": "payable",
      "type": "function"
    },
    {
      "inputs": [
        {
          "internalType": "uint256",
          "name": "",
          "type": "uint256"
        }
      ],
      "name": "deployedElections",
      "outputs": [
        {
          "internalType": "address",
          "name": "",
          "type": "address"
        }
      ],
      "stateMutability": "view",
      "type": "function"
    },
    {
      "inputs": [],
      "name": "getDeployedElections",
      "outputs": [
        {
          "internalType": "address[]",
          "name": "",
          "type": "address[]"
        }
      ],
      "stateMutability": "view",
      "type": "function"
    },
    {
      "inputs": [
        {
          "internalType": "address",
          "name": "admin",
          "type": "address"
        }
      ],
      "name": "getElectionByAdmin",
      "outputs": [
        {
          "internalType": "address",
          "name": "",
          "type": "address"
        }
      ],
      "stateMutability": "view",
      "type": "function"
    }
  ],
  "bytecode": "0x608060405234801561001057600080fd5b50613758806100206000396000f3fe608060405260043610620000505760003560e01c80632aed20ec146200005557806373b1687b1462000099578063ca30659414620000dd578063f18b4f8e146200010d578063fe53f6e31462000151575b600080fd5b3480156200006257600080fd5b506200008160048036038101906200007b9190620006fb565b62000171565b6040516200009091906200073e565b60405180910390f35b348015620000a657600080fd5b50620000c56004803603810190620000bf9190620006fb565b620001da565b604051620000d491906200073e565b60405180910390f35b348015620000ea57600080fd5b50620000f56200020d565b60405162000104919062000829565b60405180910390f35b3480156200011a57600080fd5b5062000139600480360381019062000133919062000888565b6200029d565b6040516200014891906200073e565b60405180910390f35b6200016f600480360381019062000169919062000b18565b620002dd565b005b6000600160008373ffffffffffffffffffffffffffffffffffffffff1673ffffffffffffffffffffffffffffffffffffffff16815260200190815260200160002060009054906101000a900473ffffffffffffffffffffffffffffffffffffffff169050919050565b60016020528060005260406000206000915054906101000a900473ffffffffffffffffffffffffffffffffffffffff1681565b606060008054806020026020016040519081016040528092919081815260200182805480156200029357602002820191906000526020600020905b8160009054906101000a900473ffffffffffffffffffffffffffffffffffffffff1673ffffffffffffffffffffffffffffffffffffffff168152602001906001019080831162000248575b5050505050905090565b60008181548110620002ae57600080fd5b906000526020600020016000915054906101000a900473ffffffffffffffffffffffffffffffffffffffff1681565b600082511162000324576040517f08c379a00000000000000000000000000000000000000000000000000000000081526004016200031b9062000c32565b60405180910390fd5b6002815110156200036c576040517f08c379a0000000000000000000000000000000000000000000000000000000008152600401620003639062000ca4565b60405180910390fd5b6103e882511115620003b5576040517f08c379a0000000000000000000000000000000000000000000000000000000008152600401620003ac9062000d16565b60405180910390fd5b600073ffffffffffffffffffffffffffffffffffffffff16600160003373ffffffffffffffffffffffffffffffffffffffff1673ffffffffffffffffffffffffffffffffffffffff16815260200190815260200160002060009054906101000a900473ffffffffffffffffffffffffffffffffffffffff1673ffffffffffffffffffffffffffffffffffffffff161462000486576040517f08c379a00000000000000000000000000000000000000000000000000000000081526004016200047d9062000dae565b60405180910390fd5b8151662386f26fc100006200049c919062000dff565b341015620004e1576040517f08c379a0000000000000000000000000000000000000000000000000000000008152600401620004d89062000e9a565b60405180910390fd5b60003433858486604051620004f69062000674565b62000505949392919062001056565b6040518091039082f090508015801562000523573d6000803e3d6000fd5b5090506000819080600181540180825580915050600190039060005260206000200160009091909190916101000a81548173ffffffffffffffffffffffffffffffffffffffff021916908373ffffffffffffffffffffffffffffffffffffffff16021790555080600160003373ffffffffffffffffffffffffffffffffffffffff1673ffffffffffffffffffffffffffffffffffffffff16815260200190815260200160002060006101000a81548173ffffffffffffffffffffffffffffffffffffffff021916908373ffffffffffffffffffffffffffffffffffffffff1602179055508073ffffffffffffffffffffffffffffffffffffffff163373ffffffffffffffffffffffffffffffffffffffff167f58701c4cb084eb3ec4467a6e962ae496cd129cdf7866dfbcea73b56149b88e8586604051620006669190620010b8565b60405180910390a350505050565b61264680620010dd83390190565b6000604051905090565b600080fd5b600080fd5b600073ffffffffffffffffffffffffffffffffffffffff82169050919050565b6000620006c38262000696565b9050919050565b620006d581620006b6565b8114620006e157600080fd5b50565b600081359050620006f581620006ca565b92915050565b6000602082840312156200071457620007136200068c565b5b60006200072484828501620006e4565b91505092915050565b6200073881620006b6565b82525050565b60006020820190506200075560008301846200072d565b92915050565b600081519050919050565b600082825260208201905092915050565b6000819050602082019050919050565b6200079281620006b6565b82525050565b6000620007a6838362000787565b60208301905092915050565b6000602082019050919050565b6000620007cc826200075b565b620007d8818562000766565b9350620007e58362000777565b8060005b838110156200081c57815162000800888262000798565b97506200080d83620007b2565b925050600181019050620007e9565b5085935050505092915050565b60006020820190508181036000830152620008458184620007bf565b905092915050565b6000819050919050565b62000862816200084d565b81146200086e57600080fd5b50565b600081359050620008828162000857565b92915050565b600060208284031215620008a157620008a06200068c565b5b6000620008b18482850162000871565b91505092915050565b600080fd5b600080fd5b6000601f19601f8301169050919050565b7f4e487b7100000000000000000000000000000000000000000000000000000000600052604160045260246000fd5b6200090f82620008c4565b810181811067ffffffffffffffff82111715620009315762000930620008d5565b5b80604052505050565b60006200094662000682565b905062000954828262000904565b919050565b600067ffffffffffffffff821115620009775762000976620008d5565b5b6200098282620008c4565b9050602081019050919050565b82818337600083830152505050565b6000620009b5620009af8462000959565b6200093a565b905082815260208101848484011115620009d457620009d3620008bf565b5b620009e18482856200098f565b509392505050565b600082601f83011262000a015762000a00620008ba565b5b813562000a138482602086016200099e565b91505092915050565b600067ffffffffffffffff82111562000a3a5762000a39620008d5565b5b602082029050602081019050919050565b600080fd5b600062000a6762000a618462000a1c565b6200093a565b9050808382526020820190506020840283018581111562000a8d5762000a8c62000a4b565b5b835b8181101562000adb57803567ffffffffffffffff81111562000ab65762000ab5620008ba565b5b80860162000ac58982620009e9565b8552602085019450505060208101905062000a8f565b5050509392505050565b600082601f83011262000afd5762000afc620008ba565b5b813562000b0f84826020860162000a50565b91505092915050565b60008060006060848603121562000b345762000b336200068c565b5b600084013567ffffffffffffffff81111562000b555762000b5462000691565b5b62000b6386828701620009e9565b935050602084013567ffffffffffffffff81111562000b875762000b8662000691565b5b62000b958682870162000ae5565b925050604084013567ffffffffffffffff81111562000bb95762000bb862000691565b5b62000bc78682870162000ae5565b9150509250925092565b600082825260208201905092915050565b7f4174206c65617374206f6e6520766f7465722072657175697265640000000000600082015250565b600062000c1a601b8362000bd1565b915062000c278262000be2565b602082019050919050565b6000602082019050818103600083015262000c4d8162000c0b565b9050919050565b7f4174206c656173742074776f2063616e64696461746573207265717569726564600082015250565b600062000c8c60208362000bd1565b915062000c998262000c54565b602082019050919050565b6000602082019050818103600083015262000cbf8162000c7d565b9050919050565b7f546f6f206d616e7920766f746572730000000000000000000000000000000000600082015250565b600062000cfe600f8362000bd1565b915062000d0b8262000cc6565b602082019050919050565b6000602082019050818103600083015262000d318162000cef565b9050919050565b7f596f75206861766520616c72656164792063726561746564206120636f6d6d7560008201527f6e69747900000000000000000000000000000000000000000000000000000000602082015250565b600062000d9660248362000bd1565b915062000da38262000d38565b604082019050919050565b6000602082019050818103600083015262000dc98162000d87565b9050919050565b7f4e487b7100000000000000000000000000000000000000000000000000000000600052601160045260246000fd5b600062000e0c826200084d565b915062000e19836200084d565b925082820262000e29816200084d565b9150828204841483151762000e435762000e4262000dd0565b5b5092915050565b7f4e6f7420656e6f7567682045544820746f20636f766572206761732066656573600082015250565b600062000e8260208362000bd1565b915062000e8f8262000e4a565b602082019050919050565b6000602082019050818103600083015262000eb58162000e73565b9050919050565b600081519050919050565b60005b8381101562000ee757808201518184015260208101905062000eca565b60008484015250505050565b600062000f008262000ebc565b62000f0c818562000bd1565b935062000f1e81856020860162000ec7565b62000f2981620008c4565b840191505092915050565b600081519050919050565b600082825260208201905092915050565b6000819050602082019050919050565b600082825260208201905092915050565b600062000f7e8262000ebc565b62000f8a818562000f60565b935062000f9c81856020860162000ec7565b62000fa781620008c4565b840191505092915050565b600062000fc0838362000f71565b905092915050565b6000602082019050919050565b600062000fe28262000f34565b62000fee818562000f3f565b935083602082028501620010028562000f50565b8060005b8581101562001044578484038952815162001022858262000fb2565b94506200102f8362000fc8565b925060208a0199505060018101905062001006565b50829750879550505050505092915050565b60006080820190506200106d60008301876200072d565b818103602083015262001081818662000ef3565b9050818103604083015262001097818562000fd5565b90508181036060830152620010ad818462000fd5565b905095945050505050565b60006020820190508181036000830152620010d4818462000ef3565b90509291505056fe6080604052604051620026463803806200264683398181016040528101906200002991906200069f565b8051662386f26fc100006200003f9190620007a7565b341162000083576040517f08c379a00000000000000000000000000000000000000000000000000000000081526004016200007a9062000853565b60405180910390fd5b836000806101000a81548173ffffffffffffffffffffffffffffffffffffffff021916908373ffffffffffffffffffffffffffffffffffffffff1602179055508260019081620000d4919062000ab6565b50346006819055508160029080519060200190620000f49291906200024d565b50815167ffffffffffffffff8111156200011357620001126200043f565b5b604051908082528060200260200182016040528015620001425781602001602082028036833780820191505090505b50600390805190602001906200015a929190620002ad565b5060005b8151811015620001d4576001600483838151811062000182576200018162000b9d565b5b602002602001015160405162000199919062000c0e565b908152602001604051809103902060006101000a81548160ff0219169083151502179055508080620001cb9062000c27565b9150506200015e565b5060008054906101000a900473ffffffffffffffffffffffffffffffffffffffff1673ffffffffffffffffffffffffffffffffffffffff167f0c3816de7aa2c92cc893c9b5d5b558e8d660c69b6c5e0dfb050531bd35565ddc6040516200023b9062000cc4565b60405180910390a25050505062000ce6565b8280548282559060005260206000209081019282156200029a579160200282015b828111156200029957825182908162000288919062000ab6565b50916020019190600101906200026e565b5b509050620002a99190620002ff565b5090565b828054828255906000526020600020908101928215620002ec579160200282015b82811115620002eb578251825591602001919060010190620002ce565b5b509050620002fb919062000327565b5090565b5b8082111562000323576000818162000319919062000346565b5060010162000300565b5090565b5b808211156200034257600081600090555060010162000328565b5090565b5080546200035490620008af565b6000825580601f1062000368575062000389565b601f0160209004906000526020600020908101906200038891906200038c565b5b50565b5b80821115620003a75760008160009055506001016200038d565b5090565b6000604051905090565b600080fd5b600080fd5b600073ffffffffffffffffffffffffffffffffffffffff82169050919050565b6000620003ec82620003bf565b9050919050565b620003fe81620003df565b81146200040a57600080fd5b50565b6000815190506200041e81620003f3565b92915050565b600080fd5b600080fd5b6000601f19601f8301169050919050565b7f4e487b7100000000000000000000000000000000000000000000000000000000600052604160045260246000fd5b62000479826200042e565b810181811067ffffffffffffffff821117156200049b576200049a6200043f565b5b80604052505050565b6000620004b0620003ab565b9050620004be82826200046e565b919050565b600067ffffffffffffffff821115620004e157620004e06200043f565b5b620004ec826200042e565b9050602081019050919050565b60005b8381101562000519578082015181840152602081019050620004fc565b60008484015250505050565b60006200053c6200053684620004c3565b620004a4565b9050828152602081018484840111156200055b576200055a62000429565b5b62000568848285620004f9565b509392505050565b600082601f83011262000588576200058762000424565b5b81516200059a84826020860162000525565b91505092915050565b600067ffffffffffffffff821115620005c157620005c06200043f565b5b602082029050602081019050919050565b600080fd5b6000620005ee620005e884620005a3565b620004a4565b90508083825260208201905060208402830185811115620006145762000613620005d2565b5b835b818110156200066257805167ffffffffffffffff8111156200063d576200063c62000424565b5b8086016200064c898262000570565b8552602085019450505060208101905062000616565b5050509392505050565b600082601f83011262000684576200068362000424565b5b815162000696848260208601620005d7565b91505092915050565b60008060008060808587031215620006bc57620006bb620003b5565b5b6000620006cc878288016200040d565b945050602085015167ffffffffffffffff811115620006f057620006ef620003ba565b5b620006fe8782880162000570565b935050604085015167ffffffffffffffff811115620007225762000721620003ba565b5b62000730878288016200066c565b925050606085015167ffffffffffffffff811115620007545762000753620003ba565b5b62000762878288016200066c565b91505092959194509250565b6000819050919050565b7f4e487b7100000000000000000000000000000000000000000000000000000000600052601160045260246000fd5b6000620007b4826200076e565b9150620007c1836200076e565b9250828202620007d1816200076e565b91508282048414831517620007eb57620007ea62000778565b5b5092915050565b600082825260208201905092915050565b7f4e6f7420656e6f7567682045544820746f20636f766572206761732066656573600082015250565b60006200083b602083620007f2565b9150620008488262000803565b602082019050919050565b600060208201905081810360008301526200086e816200082c565b9050919050565b600081519050919050565b7f4e487b7100000000000000000000000000000000000000000000000000000000600052602260045260246000fd5b60006002820490506001821680620008c857607f821691505b602082108103620008de57620008dd62000880565b5b50919050565b60008190508160005260206000209050919050565b60006020601f8301049050919050565b600082821b905092915050565b600060088302620009487fffffffffffffffffffffffffffffffffffffffffffffffffffffffffffffffff8262000909565b62000954868362000909565b95508019841693508086168417925050509392505050565b6000819050919050565b600062000997620009916200098b846200076e565b6200096c565b6200076e565b9050919050565b6000819050919050565b620009b38362000976565b620009cb620009c2826200099e565b84845462000916565b825550505050565b600090565b620009e2620009d3565b620009ef818484620009a8565b505050565b5b8181101562000a175762000a0b600082620009d8565b600181019050620009f5565b5050565b601f82111562000a665762000a3081620008e4565b62000a3b84620008f9565b8101602085101562000a4b578190505b62000a6362000a5a85620008f9565b830182620009f4565b50505b505050565b600082821c905092915050565b600062000a8b6000198460080262000a6b565b1980831691505092915050565b600062000aa6838362000a78565b9150826002028217905092915050565b62000ac18262000875565b67ffffffffffffffff81111562000add5762000adc6200043f565b5b62000ae98254620008af565b62000af682828562000a1b565b600060209050601f83116001811462000b2e576000841562000b19578287015190505b62000b25858262000a98565b86555062000b95565b601f19841662000b3e86620008e4565b60005b8281101562000b685784890151825560018201915060208501945060208101905062000b41565b8683101562000b88578489015162000b84601f89168262000a78565b8355505b6001600288020188555050505b505050505050565b7f4e487b7100000000000000000000000000000000000000000000000000000000600052603260045260246000fd5b600081905092915050565b600062000be48262000875565b62000bf0818562000bcc565b935062000c02818560208601620004f9565b80840191505092915050565b600062000c1c828462000bd7565b915081905092915050565b600062000c34826200076e565b91507fffffffffffffffffffffffffffffffffffffffffffffffffffffffffffffffff820362000c695762000c6862000778565b5b600182019050919050565b7f47656e6572616c20456c656374696f6e00000000000000000000000000000000600082015250565b600062000cac601083620007f2565b915062000cb98262000c74565b602082019050919050565b6000602082019050818103600083015262000cdf8162000c9d565b9050919050565b6119508062000cf66000396000f3fe6080604052600436106100dd5760003560e01c8063805265e51161007f578063c6d572ae11610059578063c6d572ae146102e8578063e2c41dbc14610313578063e8d5940d1461031d578063f851a44014610346576100dd565b8063805265e514610255578063851b6ef2146102925780638b7afe2e146102bd576100dd565b806349649fbf116100bb57806349649fbf146101995780635df81330146101b05780636f9fb98a146101ed57806376830a0d14610218576100dd565b80631f3d99f8146100e25780633477ee2e1461011f57806339bfeae31461015c575b600080fd5b3480156100ee57600080fd5b5061010960048036038101906101049190610e8c565b610371565b6040516101169190610ef0565b60405180910390f35b34801561012b57600080fd5b5061014660048036038101906101419190610f41565b6103a7565b6040516101539190610fed565b60405180910390f35b34801561016857600080fd5b50610183600480360381019061017e9190610e8c565b610453565b6040516101909190610ef0565b60405180910390f35b3480156101a557600080fd5b506101ae610489565b005b3480156101bc57600080fd5b506101d760048036038101906101d29190610f41565b610641565b6040516101e49190611028565b60405180910390f35b3480156101f957600080fd5b50610202610665565b60405161020f9190611052565b60405180910390f35b34801561022457600080fd5b5061023f600480360381019061023a9190610e8c565b61066d565b60405161024c9190611028565b60405180910390f35b34801561026157600080fd5b5061027c60048036038101906102779190610e8c565b610738565b6040516102899190611028565b60405180910390f35b34801561029e57600080fd5b506102a76107cf565b6040516102b4919061112b565b60405180910390f35b3480156102c957600080fd5b506102d2610827565b6040516102df9190611052565b60405180910390f35b3480156102f457600080fd5b506102fd61082d565b60405161030a9190610fed565b60405180910390f35b61031b6108bb565b005b34801561032957600080fd5b50610344600480360381019061033f919061114d565b6109f5565b005b34801561035257600080fd5b5061035b610d0e565b6040516103689190611206565b60405180910390f35b6004818051602081018201805184825260208301602085012081835280955050505050506000915054906101000a900460ff1681565b600281815481106103b757600080fd5b9060005260206000200160009150905080546103d290611250565b80601f01602080910402602001604051908101604052809291908181526020018280546103fe90611250565b801561044b5780601f106104205761010080835404028352916020019161044b565b820191906000526020600020905b81548152906001019060200180831161042e57829003601f168201915b505050505081565b6005818051602081018201805184825260208301602085012081835280955050505050506000915054906101000a900460ff1681565b60008054906101000a900473ffffffffffffffffffffffffffffffffffffffff1673ffffffffffffffffffffffffffffffffffffffff163373ffffffffffffffffffffffffffffffffffffffff1614610517576040517f08c379a000000000000000000000000000000000000000000000000000000000815260040161050e906112f3565b60405180910390fd5b6000600654905060008111610561576040517f08c379a00000000000000000000000000000000000000000000000000000000081526004016105589061135f565b60405180910390fd5b600060068190555060008054906101000a900473ffffffffffffffffffffffffffffffffffffffff1673ffffffffffffffffffffffffffffffffffffffff166108fc829081150290604051600060405180830381858888f193505050501580156105cf573d6000803e3d6000fd5b5060008054906101000a900473ffffffffffffffffffffffffffffffffffffffff1673ffffffffffffffffffffffffffffffffffffffff167feaff4b37086828766ad3268786972c0cd24259d4c87a80f9d3963a3c3d999b0d826040516106369190611052565b60405180910390a250565b6003818154811061065157600080fd5b906000526020600020016000915090505481565b600047905090565b600080600090505b60028054905081101561070e578260405160200161069391906113bb565b60405160208183030381529060405280519060200120600282815481106106bd576106bc6113d2565b5b906000526020600020016040516020016106d79190611499565b60405160208183030381529060405280519060200120036106fb5780915050610733565b8080610706906114df565b915050610675565b507fffffffffffffffffffffffffffffffffffffffffffffffffffffffffffffffff90505b919050565b6000806107448361066d565b90507fffffffffffffffffffffffffffffffffffffffffffffffffffffffffffffffff81036107a8576040517f08c379a000000000000000000000000000000000000000000000000000000000815260040161079f90611573565b60405180910390fd5b600381815481106107bc576107bb6113d2565b5b9060005260206000200154915050919050565b6060600380548060200260200160405190810160405280929190818152602001828054801561081d57602002820191906000526020600020905b815481526020019060010190808311610809575b5050505050905090565b60065481565b6001805461083a90611250565b80601f016020809104026020016040519081016040528092919081815260200182805461086690611250565b80156108b35780601f10610888576101008083540402835291602001916108b3565b820191906000526020600020905b81548152906001019060200180831161089657829003601f168201915b505050505081565b60008054906101000a900473ffffffffffffffffffffffffffffffffffffffff1673ffffffffffffffffffffffffffffffffffffffff163373ffffffffffffffffffffffffffffffffffffffff1614610949576040517f08c379a0000000000000000000000000000000000000000000000000000000008152600401610940906112f3565b60405180910390fd5b6000341161098c576040517f08c379a0000000000000000000000000000000000000000000000000000000008152600401610983906115df565b60405180910390fd5b346006600082825461099e91906115ff565b925050819055503373ffffffffffffffffffffffffffffffffffffffff167f543ba50a5eec5e6178218e364b1d0f396157b3c8fa278522c2cb7fd99407d474346040516109eb9190611052565b60405180910390a2565b600482604051610a0591906113bb565b908152602001604051809103902060009054906101000a900460ff16610a60576040517f08c379a0000000000000000000000000000000000000000000000000000000008152600401610a579061167f565b60405180910390fd5b600582604051610a7091906113bb565b908152602001604051809103902060009054906101000a900460ff1615610acc576040517f08c379a0000000000000000000000000000000000000000000000000000000008152600401610ac3906116eb565b60405180910390fd5b662386f26fc10000471015610b16576040517f08c379a0000000000000000000000000000000000000000000000000000000008152600401610b0d90611757565b60405180910390fd5b6000610b218261066d565b90507fffffffffffffffffffffffffffffffffffffffffffffffffffffffffffffffff8103610b85576040517f08c379a0000000000000000000000000000000000000000000000000000000008152600401610b7c90611573565b60405180910390fd5b6000479050600160038381548110610ba057610b9f6113d2565b5b906000526020600020016000828254610bb99190611777565b925050819055506001600585604051610bd291906113bb565b908152602001604051809103902060006101000a81548160ff021916908315150217905550662386f26fc1000060066000828254610c1091906117bb565b9250508190555060003373ffffffffffffffffffffffffffffffffffffffff16662386f26fc10000604051610c4490611820565b60006040518083038185875af1925050503d8060008114610c81576040519150601f19603f3d011682016040523d82523d6000602084013e610c86565b606091505b5050905080610cca576040517f08c379a0000000000000000000000000000000000000000000000000000000008152600401610cc1906118a7565b60405180910390fd5b7f1db2c80614a15f053e16e282d90080783a4c34a200dfd5b919f35725d44d9e2985858447604051610cff94939291906118c7565b60405180910390a15050505050565b60008054906101000a900473ffffffffffffffffffffffffffffffffffffffff1681565b6000604051905090565b600080fd5b600080fd5b600080fd5b600080fd5b6000601f19601f8301169050919050565b7f4e487b7100000000000000000000000000000000000000000000000000000000600052604160045260246000fd5b610d9982610d50565b810181811067ffffffffffffffff82111715610db857610db7610d61565b5b80604052505050565b6000610dcb610d32565b9050610dd78282610d90565b919050565b600067ffffffffffffffff821115610df757610df6610d61565b5b610e0082610d50565b9050602081019050919050565b82818337600083830152505050565b6000610e2f610e2a84610ddc565b610dc1565b905082815260208101848484011115610e4b57610e4a610d4b565b5b610e56848285610e0d565b509392505050565b600082601f830112610e7357610e72610d46565b5b8135610e83848260208601610e1c565b91505092915050565b600060208284031215610ea257610ea1610d3c565b5b600082013567ffffffffffffffff811115610ec057610ebf610d41565b5b610ecc84828501610e5e565b91505092915050565b60008115159050919050565b610eea81610ed5565b82525050565b6000602082019050610f056000830184610ee1565b92915050565b6000819050919050565b610f1e81610f0b565b8114610f2957600080fd5b50565b600081359050610f3b81610f15565b92915050565b600060208284031215610f5757610f56610d3c565b5b6000610f6584828501610f2c565b91505092915050565b600081519050919050565b600082825260208201905092915050565b60005b83811015610fa8578082015181840152602081019050610f8d565b60008484015250505050565b6000610fbf82610f6e565b610fc98185610f79565b9350610fd9818560208601610f8a565b610fe281610d50565b840191505092915050565b600060208201905081810360008301526110078184610fb4565b905092915050565b6000819050919050565b6110228161100f565b82525050565b600060208201905061103d6000830184611019565b92915050565b61104c81610f0b565b82525050565b60006020820190506110676000830184611043565b92915050565b600081519050919050565b600082825260208201905092915050565b6000819050602082019050919050565b6110a28161100f565b82525050565b60006110b48383611099565b60208301905092915050565b6000602082019050919050565b60006110d88261106d565b6110e28185611078565b93506110ed83611089565b8060005b8381101561111e57815161110588826110a8565b9750611110836110c0565b9250506001810190506110f1565b5085935050505092915050565b6000602082019050818103600083015261114581846110cd565b905092915050565b6000806040838503121561116457611163610d3c565b5b600083013567ffffffffffffffff81111561118257611181610d41565b5b61118e85828601610e5e565b925050602083013567ffffffffffffffff8111156111af576111ae610d41565b5b6111bb85828601610e5e565b9150509250929050565b600073ffffffffffffffffffffffffffffffffffffffff82169050919050565b60006111f0826111c5565b9050919050565b611200816111e5565b82525050565b600060208201905061121b60008301846111f7565b92915050565b7f4e487b7100000000000000000000000000000000000000000000000000000000600052602260045260246000fd5b6000600282049050600182168061126857607f821691505b60208210810361127b5761127a611221565b5b50919050565b7f4f6e6c792061646d696e2063616e20706572666f726d2074686973206163746960008201527f6f6e000000000000000000000000000000000000000000000000000000000000602082015250565b60006112dd602283610f79565b91506112e882611281565b604082019050919050565b6000602082019050818103600083015261130c816112d0565b9050919050565b7f4e6f2066756e647320746f207769746864726177000000000000000000000000600082015250565b6000611349601483610f79565b915061135482611313565b602082019050919050565b600060208201905081810360008301526113788161133c565b9050919050565b600081905092915050565b600061139582610f6e565b61139f818561137f565b93506113af818560208601610f8a565b80840191505092915050565b60006113c7828461138a565b915081905092915050565b7f4e487b7100000000000000000000000000000000000000000000000000000000600052603260045260246000fd5b60008190508160005260206000209050919050565b6000815461142381611250565b61142d818661137f565b94506001821660008114611448576001811461145d57611490565b60ff1983168652811515820286019350611490565b61146685611401565b60005b8381101561148857815481890152600182019150602081019050611469565b838801955050505b50505092915050565b60006114a58284611416565b915081905092915050565b7f4e487b7100000000000000000000000000000000000000000000000000000000600052601160045260246000fd5b60006114ea82610f0b565b91507fffffffffffffffffffffffffffffffffffffffffffffffffffffffffffffffff820361151c5761151b6114b0565b5b600182019050919050565b7f43616e646964617465206e6f7420666f756e6400000000000000000000000000600082015250565b600061155d601383610f79565b915061156882611527565b602082019050919050565b6000602082019050818103600083015261158c81611550565b9050919050565b7f4d757374206465706f73697420736f6d65204554480000000000000000000000600082015250565b60006115c9601583610f79565b91506115d482611593565b602082019050919050565b600060208201905081810360008301526115f8816115bc565b9050919050565b600061160a82610f0b565b915061161583610f0b565b925082820190508082111561162d5761162c6114b0565b5b92915050565b7f4e6f742061207265676973746572656420766f74657200000000000000000000600082015250565b6000611669601683610f79565b915061167482611633565b602082019050919050565b600060208201905081810360008301526116988161165c565b9050919050565b7f566f7465722068617320616c726561647920766f746564000000000000000000600082015250565b60006116d5601783610f79565b91506116e08261169f565b602082019050919050565b60006020820190508181036000830152611704816116c8565b9050919050565b7f4e6f7420656e6f7567682045544820746f20636f766572206761732066656573600082015250565b6000611741602083610f79565b915061174c8261170b565b602082019050919050565b6000602082019050818103600083015261177081611734565b9050919050565b60006117828261100f565b915061178d8361100f565b9250828201905082811215600083121683821260008412151617156117b5576117b46114b0565b5b92915050565b60006117c682610f0b565b91506117d183610f0b565b92508282039050818111156117e9576117e86114b0565b5b92915050565b600081905092915050565b50565b600061180a6000836117ef565b9150611815826117fa565b600082019050919050565b600061182b826117fd565b9150819050919050565b7f4661696c656420746f207265696d627572736520636f6d70616e79206163636f60008201527f756e740000000000000000000000000000000000000000000000000000000000602082015250565b6000611891602383610f79565b915061189c82611835565b604082019050919050565b600060208201905081810360008301526118c081611884565b9050919050565b600060808201905081810360008301526118e18187610fb4565b905081810360208301526118f58186610fb4565b90506119046040830185611043565b6119116060830184611043565b9594505050505056fea2646970667358221220a040779835db008aa5853395f59a84ae2a3f62aed0dd1e903ca115cb89fde6a864736f6c63430008140033a26469706673582212205aaa25cd331b9cc1eb9d33576f7e08012559cb37a51259b200776e2c78bee11464736f6c63430008140033",
  "linkReferences": {},
  "deployedLinkReferences": {}
}